interactions:
- request:
    body: '{"signer_type": "api_signer", "vault_id": "bdb889c8-7f39-4b1c-8973-bd0532143796",
      "type": "evm_transaction", "details": {"type": "evm_transfer", "gas": {"type":
      "priority", "priority_level": "medium"}, "asset_identifier": {"type": "evm",
      "details": {"type": "native", "chain": "evm_base_mainnet"}}, "to": "0xB5196134D57Da6996E0473370667f58717D0bF82",
      "value": {"type": "value", "value": "1"}}}'
    headers:
      Content-Length:
      - '393'
      Content-Type:
      - application/json
      x-idempotence-id:
      - aa4e3c61-2408-44dd-afea-1d4f93bf6e31
    method: POST
    uri: https://api.fordefi.com/api/v1/transactions
  response:
    body:
      string: '{"id":"52ef75da-3a95-40a6-bc20-d1e877701557","created_at":"2025-02-24T14:55:24.516000Z","modified_at":"2025-03-03T12:50:59.975000Z","managed_transaction_data":{"created_by":{"id":"7e94b222-22f1-437a-b2a5-8d866d3d4d28","user_type":"api_user","name":"Nuno
        C / Local Testing","state":"deleted","role":"trader"},"device_signing_request":{"created_by":{"id":"7e94b222-22f1-437a-b2a5-8d866d3d4d28","user_type":"api_user","name":"Nuno
        C / Local Testing","state":"deleted","role":"trader"},"signers":[{"user":{"id":"a1e1ccee-ef58-42b5-8d5f-c3f8d0f8f550","user_type":"api_signer","name":"Testing","state":"deleted"},"modified_at":"2025-02-24T14:55:24.548000Z","has_signed":false}]},"policy_match":{"is_default":true,"rule_id":"00000000-0000-0000-0000-000000000000","rule_name":"","action_type":"allow"},"signer_type":"api_signer","risks":[],"error_pushing_to_blockchain_message":"Error
        pushing transaction.","original_error_pushing_to_blockchain_message":"intrinsic
        gas too low","vault":{"id":"bdb889c8-7f39-4b1c-8973-bd0532143796","vault_group_id":"5fffafad-bc06-422d-9ca4-73ed2b64f7c3","name":"EVM
        Releases","address":"0xA031314c1bFc27b83163978DFB8549829789ae63","state":"active","type":"evm"},"idempotence_id":"aa4e3c61-2408-44dd-afea-1d4f93bf6e31","has_current_user_vault_permissions":true,"push_mode":"auto","sign_mode":"auto"},"signatures":[{"data":"gEcX3jeW/QY1VBtCRI1HQCh3TEAvAKdX7jBSRfn48T9kIxVufqW+nYeLj6pXvSIOFtusDteiAZDRRLTGiF2mJwA=","signed_by":{"id":"a1e1ccee-ef58-42b5-8d5f-c3f8d0f8f550","user_type":"api_signer","name":"Testing","state":"deleted"}}],"spam_state":"unset","direction":"outgoing","signed_externally":false,"interacted_vaults":[{"id":"bdb889c8-7f39-4b1c-8973-bd0532143796","vault_group_id":"5fffafad-bc06-422d-9ca4-73ed2b64f7c3","name":"EVM
        Releases","address":"0xA031314c1bFc27b83163978DFB8549829789ae63","state":"active","type":"evm"},{"id":"a68a470a-52b9-40d3-a863-4c916f85e17a","vault_group_id":"53827306-ad1d-4500-824a-9e5825844e0b","name":"EMV
        Deposits","address":"0xB5196134D57Da6996E0473370667f58717D0bF82","state":"active","type":"evm"}],"state":"error_pushing_to_blockchain","state_changes":[{"changed_at":"2025-02-24T14:55:24.516000Z","asset_prices":[],"prices":{"token_prices":[]},"new_state":"waiting_for_approval"},{"changed_at":"2025-02-24T14:55:24.546000Z","asset_prices":[],"prices":{"token_prices":[]},"previous_state":"waiting_for_approval","new_state":"approved"},{"changed_at":"2025-03-03T12:50:59.942000Z","asset_prices":[],"prices":{"token_prices":[]},"previous_state":"approved","new_state":"signed"},{"changed_at":"2025-03-03T12:50:59.974000Z","asset_prices":[],"prices":{"token_prices":[]},"previous_state":"signed","new_state":"error_pushing_to_blockchain"}],"is_cancelation":false,"is_acceleration":false,"type":"evm_transaction","evm_transaction_type_details":{"type":"native_transfer","direction":"internal","is_internal":true},"chain":{"chain_type":"evm","named_chain_id":"arbitrum_mainnet","chain_id":42161,"unique_id":"evm_arbitrum_mainnet","name":"Arbitrum
        One","native_currency_symbol":"ETH","native_currency_name":"Ether","blockchain_explorer":{"transaction_url":"https://arbiscan.io/tx/","address_url":"https://arbiscan.io/address/","root_url":"https://arbiscan.io/","transaction_format_url":"https://arbiscan.io/tx/%s","address_format_url":"https://arbiscan.io/address/%s","asset_format_url":"https://arbiscan.io/address/%s"},"logo_url":"https://logos.fordefi.com/chains/evm/default/42161.svg","is_testnet":false,"is_enabled":true,"gas_type":"legacy","supports_secure_node":false,"source":"default"},"from":{"vault":{"id":"bdb889c8-7f39-4b1c-8973-bd0532143796","vault_group_id":"5fffafad-bc06-422d-9ca4-73ed2b64f7c3","name":"EVM
        Releases","address":"0xA031314c1bFc27b83163978DFB8549829789ae63","state":"active","type":"evm"},"explorer_url":"https://arbiscan.io/address/0xA031314c1bFc27b83163978DFB8549829789ae63","type":"evm","address":"0xA031314c1bFc27b83163978DFB8549829789ae63"},"to":{"vault":{"id":"a68a470a-52b9-40d3-a863-4c916f85e17a","vault_group_id":"53827306-ad1d-4500-824a-9e5825844e0b","name":"EMV
        Deposits","address":"0xB5196134D57Da6996E0473370667f58717D0bF82","state":"active","type":"evm"},"explorer_url":"https://arbiscan.io/address/0xB5196134D57Da6996E0473370667f58717D0bF82","type":"evm","address":"0xB5196134D57Da6996E0473370667f58717D0bF82"},"value":"1","data":"","parsed_data":{"method":"","method_arguments":[]},"hash":"0xdce9fb31edec70f17a1b45666321c6af330f7fbe24d22954aa93bbfeb2542fea","nonce":0,"expected_result":{"reversion":{"state":"not_reverted"},"gas_debit":{"gas_used":"42342","gas_price":"12000000","total_fee":"508104000000","fiat_price":{"price":"436012","price_float":"436012","fiat_currency":{"currency_symbol":"usd","decimals":2}},"priced_asset":{"type":"asset_price","asset_identifier":{"type":"evm","details":{"chain":{"chain_type":"evm","named_chain_id":"arbitrum_mainnet","chain_id":42161,"unique_id":"evm_arbitrum_mainnet","name":"Arbitrum
        One","native_currency_symbol":"ETH","native_currency_name":"Ether","blockchain_explorer":{"transaction_url":"https://arbiscan.io/tx/","address_url":"https://arbiscan.io/address/","root_url":"https://arbiscan.io/","transaction_format_url":"https://arbiscan.io/tx/%s","address_format_url":"https://arbiscan.io/address/%s","asset_format_url":"https://arbiscan.io/address/%s"},"logo_url":"https://logos.fordefi.com/chains/evm/default/42161.svg","is_testnet":false,"is_enabled":true,"gas_type":"legacy","supports_secure_node":false,"source":"default"},"type":"native"}},"asset_info":{"id":"fe8ac93b-4480-4f60-b53c-a6dabe17c76b","asset_identifier":{"type":"evm","details":{"type":"native","chain":"evm_arbitrum_mainnet"},"chain":{"chain_type":"evm","named_chain_id":"arbitrum_mainnet","chain_id":42161,"unique_id":"evm_arbitrum_mainnet","name":"Arbitrum
        One","native_currency_symbol":"ETH","native_currency_name":"Ether","blockchain_explorer":{"transaction_url":"https://arbiscan.io/tx/","address_url":"https://arbiscan.io/address/","root_url":"https://arbiscan.io/","transaction_format_url":"https://arbiscan.io/tx/%s","address_format_url":"https://arbiscan.io/address/%s","asset_format_url":"https://arbiscan.io/address/%s"},"logo_url":"https://logos.fordefi.com/chains/evm/default/42161.svg","is_testnet":false,"is_enabled":true,"gas_type":"legacy","supports_secure_node":false,"source":"default"}},"name":"Ether","symbol":"ETH","decimals":18,"verified":true,"metadata_uri":"","is_spam":false},"price":{"price":"436012","price_float":"436012","fiat_currency":{"currency_symbol":"usd","decimals":2}}}},"effects":{"balance_changes":[{"priced_asset":{"type":"asset_price","asset_identifier":{"type":"evm","details":{"chain":{"chain_type":"evm","named_chain_id":"arbitrum_mainnet","chain_id":42161,"unique_id":"evm_arbitrum_mainnet","name":"Arbitrum
        One","native_currency_symbol":"ETH","native_currency_name":"Ether","blockchain_explorer":{"transaction_url":"https://arbiscan.io/tx/","address_url":"https://arbiscan.io/address/","root_url":"https://arbiscan.io/","transaction_format_url":"https://arbiscan.io/tx/%s","address_format_url":"https://arbiscan.io/address/%s","asset_format_url":"https://arbiscan.io/address/%s"},"logo_url":"https://logos.fordefi.com/chains/evm/default/42161.svg","is_testnet":false,"is_enabled":true,"gas_type":"legacy","supports_secure_node":false,"source":"default"},"type":"native"}},"asset_info":{"id":"fe8ac93b-4480-4f60-b53c-a6dabe17c76b","asset_identifier":{"type":"evm","details":{"type":"native","chain":"evm_arbitrum_mainnet"},"chain":{"chain_type":"evm","named_chain_id":"arbitrum_mainnet","chain_id":42161,"unique_id":"evm_arbitrum_mainnet","name":"Arbitrum
        One","native_currency_symbol":"ETH","native_currency_name":"Ether","blockchain_explorer":{"transaction_url":"https://arbiscan.io/tx/","address_url":"https://arbiscan.io/address/","root_url":"https://arbiscan.io/","transaction_format_url":"https://arbiscan.io/tx/%s","address_format_url":"https://arbiscan.io/address/%s","asset_format_url":"https://arbiscan.io/address/%s"},"logo_url":"https://logos.fordefi.com/chains/evm/default/42161.svg","is_testnet":false,"is_enabled":true,"gas_type":"legacy","supports_secure_node":false,"source":"default"}},"name":"Ether","symbol":"ETH","decimals":18,"verified":true,"metadata_uri":"","is_spam":false},"price":{"price":"436012","price_float":"436012","fiat_currency":{"currency_symbol":"usd","decimals":2}}},"diff":"-1","type":"native","address":{"vault":{"id":"bdb889c8-7f39-4b1c-8973-bd0532143796","vault_group_id":"5fffafad-bc06-422d-9ca4-73ed2b64f7c3","name":"EVM
        Releases","address":"0xA031314c1bFc27b83163978DFB8549829789ae63","state":"active","type":"evm"},"explorer_url":"https://arbiscan.io/address/0xA031314c1bFc27b83163978DFB8549829789ae63","type":"evm","address":"0xA031314c1bFc27b83163978DFB8549829789ae63"},"owner":{"vault":{"id":"bdb889c8-7f39-4b1c-8973-bd0532143796","vault_group_id":"5fffafad-bc06-422d-9ca4-73ed2b64f7c3","name":"EVM
        Releases","address":"0xA031314c1bFc27b83163978DFB8549829789ae63","state":"active","type":"evm"},"explorer_url":"https://arbiscan.io/address/0xA031314c1bFc27b83163978DFB8549829789ae63","type":"evm","address":"0xA031314c1bFc27b83163978DFB8549829789ae63"},"price":{"price":"436012","price_float":"436012","fiat_currency":{"currency_symbol":"usd","decimals":2}}},{"priced_asset":{"type":"asset_price","asset_identifier":{"type":"evm","details":{"chain":{"chain_type":"evm","named_chain_id":"arbitrum_mainnet","chain_id":42161,"unique_id":"evm_arbitrum_mainnet","name":"Arbitrum
        One","native_currency_symbol":"ETH","native_currency_name":"Ether","blockchain_explorer":{"transaction_url":"https://arbiscan.io/tx/","address_url":"https://arbiscan.io/address/","root_url":"https://arbiscan.io/","transaction_format_url":"https://arbiscan.io/tx/%s","address_format_url":"https://arbiscan.io/address/%s","asset_format_url":"https://arbiscan.io/address/%s"},"logo_url":"https://logos.fordefi.com/chains/evm/default/42161.svg","is_testnet":false,"is_enabled":true,"gas_type":"legacy","supports_secure_node":false,"source":"default"},"type":"native"}},"asset_info":{"id":"fe8ac93b-4480-4f60-b53c-a6dabe17c76b","asset_identifier":{"type":"evm","details":{"type":"native","chain":"evm_arbitrum_mainnet"},"chain":{"chain_type":"evm","named_chain_id":"arbitrum_mainnet","chain_id":42161,"unique_id":"evm_arbitrum_mainnet","name":"Arbitrum
        One","native_currency_symbol":"ETH","native_currency_name":"Ether","blockchain_explorer":{"transaction_url":"https://arbiscan.io/tx/","address_url":"https://arbiscan.io/address/","root_url":"https://arbiscan.io/","transaction_format_url":"https://arbiscan.io/tx/%s","address_format_url":"https://arbiscan.io/address/%s","asset_format_url":"https://arbiscan.io/address/%s"},"logo_url":"https://logos.fordefi.com/chains/evm/default/42161.svg","is_testnet":false,"is_enabled":true,"gas_type":"legacy","supports_secure_node":false,"source":"default"}},"name":"Ether","symbol":"ETH","decimals":18,"verified":true,"metadata_uri":"","is_spam":false},"price":{"price":"436012","price_float":"436012","fiat_currency":{"currency_symbol":"usd","decimals":2}}},"diff":"1","type":"native","address":{"vault":{"id":"a68a470a-52b9-40d3-a863-4c916f85e17a","vault_group_id":"53827306-ad1d-4500-824a-9e5825844e0b","name":"EMV
        Deposits","address":"0xB5196134D57Da6996E0473370667f58717D0bF82","state":"active","type":"evm"},"explorer_url":"https://arbiscan.io/address/0xB5196134D57Da6996E0473370667f58717D0bF82","type":"evm","address":"0xB5196134D57Da6996E0473370667f58717D0bF82"},"owner":{"vault":{"id":"a68a470a-52b9-40d3-a863-4c916f85e17a","vault_group_id":"53827306-ad1d-4500-824a-9e5825844e0b","name":"EMV
        Deposits","address":"0xB5196134D57Da6996E0473370667f58717D0bF82","state":"active","type":"evm"},"explorer_url":"https://arbiscan.io/address/0xB5196134D57Da6996E0473370667f58717D0bF82","type":"evm","address":"0xB5196134D57Da6996E0473370667f58717D0bF82"},"price":{"price":"436012","price_float":"436012","fiat_currency":{"currency_symbol":"usd","decimals":2}}}],"transfers":[{"priced_asset":{"type":"asset_price","asset_identifier":{"type":"evm","details":{"chain":{"chain_type":"evm","named_chain_id":"arbitrum_mainnet","chain_id":42161,"unique_id":"evm_arbitrum_mainnet","name":"Arbitrum
        One","native_currency_symbol":"ETH","native_currency_name":"Ether","blockchain_explorer":{"transaction_url":"https://arbiscan.io/tx/","address_url":"https://arbiscan.io/address/","root_url":"https://arbiscan.io/","transaction_format_url":"https://arbiscan.io/tx/%s","address_format_url":"https://arbiscan.io/address/%s","asset_format_url":"https://arbiscan.io/address/%s"},"logo_url":"https://logos.fordefi.com/chains/evm/default/42161.svg","is_testnet":false,"is_enabled":true,"gas_type":"legacy","supports_secure_node":false,"source":"default"},"type":"native"}},"asset_info":{"id":"fe8ac93b-4480-4f60-b53c-a6dabe17c76b","asset_identifier":{"type":"evm","details":{"type":"native","chain":"evm_arbitrum_mainnet"},"chain":{"chain_type":"evm","named_chain_id":"arbitrum_mainnet","chain_id":42161,"unique_id":"evm_arbitrum_mainnet","name":"Arbitrum
        One","native_currency_symbol":"ETH","native_currency_name":"Ether","blockchain_explorer":{"transaction_url":"https://arbiscan.io/tx/","address_url":"https://arbiscan.io/address/","root_url":"https://arbiscan.io/","transaction_format_url":"https://arbiscan.io/tx/%s","address_format_url":"https://arbiscan.io/address/%s","asset_format_url":"https://arbiscan.io/address/%s"},"logo_url":"https://logos.fordefi.com/chains/evm/default/42161.svg","is_testnet":false,"is_enabled":true,"gas_type":"legacy","supports_secure_node":false,"source":"default"}},"name":"Ether","symbol":"ETH","decimals":18,"verified":true,"metadata_uri":"","is_spam":false},"price":{"price":"436012","price_float":"436012","fiat_currency":{"currency_symbol":"usd","decimals":2}}},"amount":"1","type":"native","from":{"vault":{"id":"bdb889c8-7f39-4b1c-8973-bd0532143796","vault_group_id":"5fffafad-bc06-422d-9ca4-73ed2b64f7c3","name":"EVM
        Releases","address":"0xA031314c1bFc27b83163978DFB8549829789ae63","state":"active","type":"evm"},"explorer_url":"https://arbiscan.io/address/0xA031314c1bFc27b83163978DFB8549829789ae63","type":"evm","address":"0xA031314c1bFc27b83163978DFB8549829789ae63"},"to":{"vault":{"id":"a68a470a-52b9-40d3-a863-4c916f85e17a","vault_group_id":"53827306-ad1d-4500-824a-9e5825844e0b","name":"EMV
        Deposits","address":"0xB5196134D57Da6996E0473370667f58717D0bF82","state":"active","type":"evm"},"explorer_url":"https://arbiscan.io/address/0xB5196134D57Da6996E0473370667f58717D0bF82","type":"evm","address":"0xB5196134D57Da6996E0473370667f58717D0bF82"},"price":{"price":"436012","price_float":"436012","fiat_currency":{"currency_symbol":"usd","decimals":2}}}],"allowances":[],"bridge":[],"contract_deployments":[]}},"simulation_status_result":{"simulation_status":"success","details":"not
        reverted"},"gas_submitted":{"price":"12000000","priority":"medium","limit":"42342","type":"legacy"},"use_secure_node":false,"explorer_url":"https://arbiscan.io/tx/0xdce9fb31edec70f17a1b45666321c6af330f7fbe24d22954aa93bbfeb2542fea","raw_transaction":"0xf8658083b71b0082a56694b5196134d57da6996e0473370667f58717d0bf82018083014985a0804717de3796fd0635541b42448d474028774c402f00a757ee305245f9f8f13fa06423156e7ea5be9d878b8faa57bd220e16dbac0ed7a20190d144b4c6885da627"}'
    headers:
      Connection:
      - keep-alive
      Content-Length:
      - '15308'
      Content-Type:
      - application/json
      Date:
      - Tue, 09 Sep 2025 10:13:35 GMT
      Via:
      - 1.1 a48f09960f130cb6049f12b379cf591e.cloudfront.net (CloudFront)
      X-Amz-Cf-Id:
      - 3CgivImunEXdDBVb8SNT8D6R2qevX-Rs4G5yDm6TkzD7eB7MS3G_sQ==
      X-Amz-Cf-Pop:
      - LIS50-P1
      X-Cache:
      - Miss from cloudfront
      server:
      - envoy
      vary:
      - Accept-Encoding
      x-envoy-upstream-service-time:
      - '99'
      x-request-id:
      - 66302553-d590-96fc-9904-92d6bb6ce945
    status:
      code: 200
      message: OK
version: 1
