interactions:
- request:
    body: '{"signer_type": "api_signer", "vault_id": "bdb889c8-7f39-4b1c-8973-bd0532143796",
      "type": "evm_transaction", "details": {"type": "evm_transfer", "gas": {"type":
      "priority", "priority_level": "medium"}, "asset_identifier": {"type": "evm",
      "details": {"type": "erc20", "token": {"chain": "evm_base_mainnet", "hex_repr":
      "0x07150e919b4de5fd6a63de1f9384828396f25fdc"}}}, "to": "0xB5196134D57Da6996E0473370667f58717D0bF82",
      "value": {"type": "value", "value": "1"}}}'
    headers:
      Content-Length:
      - '461'
      Content-Type:
      - application/json
      x-idempotence-id:
      - 0775e4a0-201a-430c-aa74-5f20e60b96c0
    method: POST
    uri: https://api.fordefi.com/api/v1/transactions
  response:
    body:
      string: '{"id":"3cc4e349-b7e1-4779-8c27-c34b1a27897a","created_at":"2025-02-24T15:13:05.923000Z","modified_at":"2025-03-03T12:51:02.485000Z","managed_transaction_data":{"created_by":{"id":"7e94b222-22f1-437a-b2a5-8d866d3d4d28","user_type":"api_user","name":"Nuno
        C / Local Testing","state":"deleted","role":"trader"},"device_signing_request":{"created_by":{"id":"7e94b222-22f1-437a-b2a5-8d866d3d4d28","user_type":"api_user","name":"Nuno
        C / Local Testing","state":"deleted","role":"trader"},"signers":[{"user":{"id":"a1e1ccee-ef58-42b5-8d5f-c3f8d0f8f550","user_type":"api_signer","name":"Testing","state":"deleted"},"modified_at":"2025-02-24T15:13:05.958000Z","has_signed":false}]},"policy_match":{"is_default":true,"rule_id":"00000000-0000-0000-0000-000000000000","rule_name":"","action_type":"allow"},"signer_type":"api_signer","risks":[],"vault":{"id":"bdb889c8-7f39-4b1c-8973-bd0532143796","vault_group_id":"5fffafad-bc06-422d-9ca4-73ed2b64f7c3","name":"EVM
        Releases","address":"0xA031314c1bFc27b83163978DFB8549829789ae63","state":"active","type":"evm"},"idempotence_id":"0775e4a0-201a-430c-aa74-5f20e60b96c0","has_current_user_vault_permissions":true,"push_mode":"auto","last_pushed_at":"2025-03-03T12:51:02.139000Z","sign_mode":"auto"},"signatures":[{"data":"LnQ1Iz0LzDlqGzXKdiHeg30XRjgwrEdOLlcaQxExVG4CSbtRtdTLM+W61204orRrPfhgotOWQcrAn3xGVuLBYAA=","signed_by":{"id":"a1e1ccee-ef58-42b5-8d5f-c3f8d0f8f550","user_type":"api_signer","name":"Testing","state":"deleted"}}],"spam_state":"unset","direction":"outgoing","signed_externally":false,"interacted_vaults":[{"id":"a68a470a-52b9-40d3-a863-4c916f85e17a","vault_group_id":"53827306-ad1d-4500-824a-9e5825844e0b","name":"EMV
        Deposits","address":"0xB5196134D57Da6996E0473370667f58717D0bF82","state":"active","type":"evm"},{"id":"bdb889c8-7f39-4b1c-8973-bd0532143796","vault_group_id":"5fffafad-bc06-422d-9ca4-73ed2b64f7c3","name":"EVM
        Releases","address":"0xA031314c1bFc27b83163978DFB8549829789ae63","state":"active","type":"evm"}],"block":{"number":311816314,"hash":"0xbd26ec440c7a01e99bde49376c59a0a654bbf4f03360b50b3ce167911744f50e","mined_at":"2025-03-03T12:51:02Z","height":311816314,"slot":311816314,"sequence_number":311816314,"digest":"0xbd26ec440c7a01e99bde49376c59a0a654bbf4f03360b50b3ce167911744f50e","sequence":311816314},"state":"completed_reverted","state_changes":[{"changed_at":"2025-02-24T15:13:05.923000Z","asset_prices":[],"prices":{"token_prices":[]},"new_state":"waiting_for_approval"},{"changed_at":"2025-02-24T15:13:05.956000Z","asset_prices":[],"prices":{"token_prices":[]},"previous_state":"waiting_for_approval","new_state":"approved"},{"changed_at":"2025-03-03T12:51:01.756000Z","asset_prices":[],"prices":{"token_prices":[]},"previous_state":"approved","new_state":"signed"},{"changed_at":"2025-03-03T12:51:02.145000Z","asset_prices":[],"prices":{"token_prices":[]},"previous_state":"signed","new_state":"pushed_to_blockchain"},{"changed_at":"2025-03-03T12:51:02.320000Z","asset_prices":[],"prices":{"token_prices":[]},"previous_state":"pushed_to_blockchain","new_state":"mined_reverted"},{"changed_at":"2025-03-03T12:51:02.485000Z","asset_prices":[],"prices":{"token_prices":[]},"previous_state":"mined_reverted","new_state":"completed_reverted"}],"is_cancelation":false,"is_acceleration":false,"type":"evm_transaction","evm_transaction_type_details":{"type":"contract_call"},"chain":{"chain_type":"evm","named_chain_id":"arbitrum_mainnet","chain_id":42161,"unique_id":"evm_arbitrum_mainnet","name":"Arbitrum
        One","native_currency_symbol":"ETH","native_currency_name":"Ether","blockchain_explorer":{"transaction_url":"https://arbiscan.io/tx/","address_url":"https://arbiscan.io/address/","root_url":"https://arbiscan.io/","transaction_format_url":"https://arbiscan.io/tx/%s","address_format_url":"https://arbiscan.io/address/%s","asset_format_url":"https://arbiscan.io/address/%s"},"logo_url":"https://logos.fordefi.com/chains/evm/default/42161.svg","is_testnet":false,"is_enabled":true,"gas_type":"legacy","supports_secure_node":false,"source":"default"},"from":{"vault":{"id":"bdb889c8-7f39-4b1c-8973-bd0532143796","vault_group_id":"5fffafad-bc06-422d-9ca4-73ed2b64f7c3","name":"EVM
        Releases","address":"0xA031314c1bFc27b83163978DFB8549829789ae63","state":"active","type":"evm"},"explorer_url":"https://arbiscan.io/address/0xA031314c1bFc27b83163978DFB8549829789ae63","type":"evm","address":"0xA031314c1bFc27b83163978DFB8549829789ae63"},"to":{"explorer_url":"https://arbiscan.io/address/0x912CE59144191C1204E64559FE8253a0e49E6548","type":"evm","address":"0x912CE59144191C1204E64559FE8253a0e49E6548","contract":{"name":"Arbitrum","dapp":{"id":"92e155bf-9e0d-56ed-84da-396ef276a99d","name":"Arbitrum
        DAO","url":"https://arbitrum.foundation/","logo_url":"https://logos.fordefi.com/dapps/92e155bf-9e0d-56ed-84da-396ef276a99d.png"},"is_verified":true,"token":{"address":{"chain":{"chain_type":"evm","named_chain_id":"arbitrum_mainnet","chain_id":42161,"unique_id":"evm_arbitrum_mainnet"},"hex_repr":"0x912CE59144191C1204E64559FE8253a0e49E6548"},"name":"Arbitrum","symbol":"ARB","type":"erc20","decimals":18,"logo_url":"https://logos.fordefi.com/tokens/42161/0x912ce59144191c1204e64559fe8253a0e49e6548.png"}}},"value":"0","data":"qQWcuwAAAAAAAAAAAAAAALUZYTTVfaaZbgRzNwZn9YcX0L+CAAAAAAAAAAAAAAAAAAAAAAAAAAAAAAAAAAAAAAAAAAE=","hex_data":"0xa9059cbb000000000000000000000000b5196134d57da6996e0473370667f58717d0bf820000000000000000000000000000000000000000000000000000000000000001","parsed_data":{"method":"transfer","method_arguments":[{"name":"unkparam_0","type":"address","value":"0xB5196134D57Da6996E0473370667f58717D0bF82","enriched_address":{"vault":{"id":"a68a470a-52b9-40d3-a863-4c916f85e17a","vault_group_id":"53827306-ad1d-4500-824a-9e5825844e0b","name":"EMV
        Deposits","address":"0xB5196134D57Da6996E0473370667f58717D0bF82","state":"active","type":"evm"},"explorer_url":"https://arbiscan.io/address/0xB5196134D57Da6996E0473370667f58717D0bF82","type":"evm","address":"0xB5196134D57Da6996E0473370667f58717D0bF82"}},{"name":"unkparam_1","type":"uint256","value":"1"}]},"hash":"0x016391c4a1bb6b426974de9f9a8f330c263a84f9b589c88f2e92bfa95d6e6417","nonce":0,"simulation_status_result":{"simulation_status":"success","details":""},"mined_result":{"reversion":{"state":"unknown_revert"},"gas_debit":{"gas_used":"138630","gas_price":"12000000","total_fee":"1663560000000","fiat_price":{"price":"235794","price_float":"235794","fiat_currency":{"currency_symbol":"usd","decimals":2}},"priced_asset":{"type":"asset_price","asset_info":{"id":"fe8ac93b-4480-4f60-b53c-a6dabe17c76b","asset_identifier":{"type":"evm","details":{"type":"native","chain":"evm_arbitrum_mainnet"},"chain":{"chain_type":"evm","named_chain_id":"arbitrum_mainnet","chain_id":42161,"unique_id":"evm_arbitrum_mainnet","name":"Arbitrum
        One","native_currency_symbol":"ETH","native_currency_name":"Ether","blockchain_explorer":{"transaction_url":"https://arbiscan.io/tx/","address_url":"https://arbiscan.io/address/","root_url":"https://arbiscan.io/","transaction_format_url":"https://arbiscan.io/tx/%s","address_format_url":"https://arbiscan.io/address/%s","asset_format_url":"https://arbiscan.io/address/%s"},"logo_url":"https://logos.fordefi.com/chains/evm/default/42161.svg","is_testnet":false,"is_enabled":true,"gas_type":"legacy","supports_secure_node":false,"source":"default"}},"name":"Ether","symbol":"ETH","decimals":18,"verified":true,"metadata_uri":"","is_spam":false},"price":{"price":"235794","price_float":"235794","fiat_currency":{"currency_symbol":"usd","decimals":2}}}},"effects":{"balance_changes":[],"transfers":[],"allowances":[],"bridge":[],"contract_deployments":[]}},"gas_submitted":{"price":"12000000","priority":"medium","limit":"138975","type":"legacy"},"use_secure_node":false,"explorer_url":"https://arbiscan.io/tx/0x016391c4a1bb6b426974de9f9a8f330c263a84f9b589c88f2e92bfa95d6e6417","raw_transaction":"0xf8ab8083b71b0083021edf94912ce59144191c1204e64559fe8253a0e49e654880b844a9059cbb000000000000000000000000b5196134d57da6996e0473370667f58717d0bf82000000000000000000000000000000000000000000000000000000000000000183014985a02e7435233d0bcc396a1b35ca7621de837d17463830ac474e2e571a431131546ea00249bb51b5d4cb33e5bad76d38a2b46b3df860a2d39641cac09f7c4656e2c160"}'
    headers:
      Connection:
      - keep-alive
      Content-Length:
      - '8208'
      Content-Type:
      - application/json
      Date:
      - Tue, 09 Sep 2025 10:13:53 GMT
      Via:
      - 1.1 8b0fd9a74745a3290a9c7ffef7d75076.cloudfront.net (CloudFront)
      X-Amz-Cf-Id:
      - BSuTYt-giHAOroz1-bZf8sni18PMWocZvdquQqB69MC3ZbwMAArP5A==
      X-Amz-Cf-Pop:
      - LIS50-P1
      X-Cache:
      - Miss from cloudfront
      server:
      - envoy
      vary:
      - Accept-Encoding
      x-envoy-upstream-service-time:
      - '225'
      x-request-id:
      - 985106c6-efa1-96e0-809b-1ed6afc445f0
    status:
      code: 200
      message: OK
version: 1
